{
  "_format": "hh-sol-artifact-1",
  "contractName": "Trade",
  "sourceName": "contracts/trade.sol",
  "abi": [
    {
      "anonymous": false,
      "inputs": [
        {
          "indexed": false,
          "internalType": "uint256",
          "name": "id",
          "type": "uint256"
        },
        {
          "indexed": false,
          "internalType": "string",
          "name": "name",
          "type": "string"
        },
        {
          "indexed": false,
          "internalType": "uint256",
          "name": "price",
          "type": "uint256"
        },
        {
          "indexed": false,
          "internalType": "address",
          "name": "farmer",
          "type": "address"
        }
      ],
      "name": "CropListed",
      "type": "event"
    },
    {
      "anonymous": false,
      "inputs": [
        {
          "indexed": false,
          "internalType": "uint256",
          "name": "id",
          "type": "uint256"
        },
        {
          "indexed": false,
          "internalType": "address",
          "name": "buyer",
          "type": "address"
        },
        {
          "indexed": false,
          "internalType": "uint256",
          "name": "price",
          "type": "uint256"
        }
      ],
      "name": "CropSold",
      "type": "event"
    },
    {
      "inputs": [
        {
          "internalType": "string",
          "name": "_name",
          "type": "string"
        },
        {
          "internalType": "uint256",
          "name": "_price",
          "type": "uint256"
        },
        {
          "internalType": "uint256",
          "name": "_quantity",
          "type": "uint256"
        }
      ],
      "name": "addCrop",
      "outputs": [],
      "stateMutability": "nonpayable",
      "type": "function"
    },
    {
      "inputs": [
        {
          "internalType": "uint256",
          "name": "_id",
          "type": "uint256"
        }
      ],
      "name": "buyCrop",
      "outputs": [],
      "stateMutability": "payable",
      "type": "function"
    },
    {
      "inputs": [],
      "name": "cropCount",
      "outputs": [
        {
          "internalType": "uint256",
          "name": "",
          "type": "uint256"
        }
      ],
      "stateMutability": "view",
      "type": "function"
    },
    {
      "inputs": [
        {
          "internalType": "uint256",
          "name": "",
          "type": "uint256"
        }
      ],
      "name": "crops",
      "outputs": [
        {
          "internalType": "uint256",
          "name": "id",
          "type": "uint256"
        },
        {
          "internalType": "string",
          "name": "name",
          "type": "string"
        },
        {
          "internalType": "uint256",
          "name": "price",
          "type": "uint256"
        },
        {
          "internalType": "uint256",
          "name": "quantity",
          "type": "uint256"
        },
        {
          "internalType": "address payable",
          "name": "farmer",
          "type": "address"
        },
        {
          "internalType": "bool",
          "name": "sold",
          "type": "bool"
        }
      ],
      "stateMutability": "view",
      "type": "function"
    }
  ],
  "bytecode": "0x60806040526000805534801561001457600080fd5b50610ec9806100246000396000f3fe60806040526004361061003f5760003560e01c80636c6629181461004457806370c9f1a51461006d578063dfd55a2c146100af578063e006b2ad146100da575b600080fd5b34801561005057600080fd5b5061006b600480360381019061006691906106e1565b6100f6565b005b34801561007957600080fd5b50610094600480360381019061008f9190610750565b61028e565b6040516100a696959493929190610867565b60405180910390f35b3480156100bb57600080fd5b506100c461037f565b6040516100d191906108cf565b60405180910390f35b6100f460048036038101906100ef9190610750565b610385565b005b60008211610139576040517f08c379a000000000000000000000000000000000000000000000000000000000815260040161013090610936565b60405180910390fd5b60008081548092919061014b90610985565b91905055506040518060c0016040528060005481526020018481526020018381526020018281526020013373ffffffffffffffffffffffffffffffffffffffff1681526020016000151581525060016000805481526020019081526020016000206000820151816000015560208201518160010190816101cb9190610bd9565b50604082015181600201556060820151816003015560808201518160040160006101000a81548173ffffffffffffffffffffffffffffffffffffffff021916908373ffffffffffffffffffffffffffffffffffffffff16021790555060a08201518160040160146101000a81548160ff0219169083151502179055509050507f6dc9d13ee4ed64c0fdf315c7a1fa1465c440d8ecef3c192f00d2bb83fe6391406000548484336040516102819493929190610ccc565b60405180910390a1505050565b60016020528060005260406000206000915090508060000154908060010180546102b7906109fc565b80601f01602080910402602001604051908101604052809291908181526020018280546102e3906109fc565b80156103305780601f1061030557610100808354040283529160200191610330565b820191906000526020600020905b81548152906001019060200180831161031357829003601f168201915b5050505050908060020154908060030154908060040160009054906101000a900473ffffffffffffffffffffffffffffffffffffffff16908060040160149054906101000a900460ff16905086565b60005481565b60006001600083815260200190815260200160002090506000821180156103ae57506000548211155b6103ed576040517f08c379a00000000000000000000000000000000000000000000000000000000081526004016103e490610d64565b60405180910390fd5b8060020154341015610434576040517f08c379a000000000000000000000000000000000000000000000000000000000815260040161042b90610dd0565b60405180910390fd5b8060040160149054906101000a900460ff1615610486576040517f08c379a000000000000000000000000000000000000000000000000000000000815260040161047d90610e3c565b60405180910390fd5b8060040160009054906101000a900473ffffffffffffffffffffffffffffffffffffffff1673ffffffffffffffffffffffffffffffffffffffff166108fc349081150290604051600060405180830381858888f193505050501580156104f0573d6000803e3d6000fd5b5060018160040160146101000a81548160ff0219169083151502179055507f6c8f25089b464e9bc8b4671f35e269840c96a16e5dabc972c33a2398f1090e858233836002015460405161054593929190610e5c565b60405180910390a15050565b6000604051905090565b600080fd5b600080fd5b600080fd5b600080fd5b6000601f19601f8301169050919050565b7f4e487b7100000000000000000000000000000000000000000000000000000000600052604160045260246000fd5b6105b88261056f565b810181811067ffffffffffffffff821117156105d7576105d6610580565b5b80604052505050565b60006105ea610551565b90506105f682826105af565b919050565b600067ffffffffffffffff82111561061657610615610580565b5b61061f8261056f565b9050602081019050919050565b82818337600083830152505050565b600061064e610649846105fb565b6105e0565b90508281526020810184848401111561066a5761066961056a565b5b61067584828561062c565b509392505050565b600082601f83011261069257610691610565565b5b81356106a284826020860161063b565b91505092915050565b6000819050919050565b6106be816106ab565b81146106c957600080fd5b50565b6000813590506106db816106b5565b92915050565b6000806000606084860312156106fa576106f961055b565b5b600084013567ffffffffffffffff81111561071857610717610560565b5b6107248682870161067d565b9350506020610735868287016106cc565b9250506040610746868287016106cc565b9150509250925092565b6000602082840312156107665761076561055b565b5b6000610774848285016106cc565b91505092915050565b610786816106ab565b82525050565b600081519050919050565b600082825260208201905092915050565b60005b838110156107c65780820151818401526020810190506107ab565b60008484015250505050565b60006107dd8261078c565b6107e78185610797565b93506107f78185602086016107a8565b6108008161056f565b840191505092915050565b600073ffffffffffffffffffffffffffffffffffffffff82169050919050565b60006108368261080b565b9050919050565b6108468161082b565b82525050565b60008115159050919050565b6108618161084c565b82525050565b600060c08201905061087c600083018961077d565b818103602083015261088e81886107d2565b905061089d604083018761077d565b6108aa606083018661077d565b6108b7608083018561083d565b6108c460a0830184610858565b979650505050505050565b60006020820190506108e4600083018461077d565b92915050565b7f5072696365206d7573742062652067726561746572207468616e203000000000600082015250565b6000610920601c83610797565b915061092b826108ea565b602082019050919050565b6000602082019050818103600083015261094f81610913565b9050919050565b7f4e487b7100000000000000000000000000000000000000000000000000000000600052601160045260246000fd5b6000610990826106ab565b91507fffffffffffffffffffffffffffffffffffffffffffffffffffffffffffffffff82036109c2576109c1610956565b5b600182019050919050565b7f4e487b7100000000000000000000000000000000000000000000000000000000600052602260045260246000fd5b60006002820490506001821680610a1457607f821691505b602082108103610a2757610a266109cd565b5b50919050565b60008190508160005260206000209050919050565b60006020601f8301049050919050565b600082821b905092915050565b600060088302610a8f7fffffffffffffffffffffffffffffffffffffffffffffffffffffffffffffffff82610a52565b610a998683610a52565b95508019841693508086168417925050509392505050565b6000819050919050565b6000610ad6610ad1610acc846106ab565b610ab1565b6106ab565b9050919050565b6000819050919050565b610af083610abb565b610b04610afc82610add565b848454610a5f565b825550505050565b600090565b610b19610b0c565b610b24818484610ae7565b505050565b5b81811015610b4857610b3d600082610b11565b600181019050610b2a565b5050565b601f821115610b8d57610b5e81610a2d565b610b6784610a42565b81016020851015610b76578190505b610b8a610b8285610a42565b830182610b29565b50505b505050565b600082821c905092915050565b6000610bb060001984600802610b92565b1980831691505092915050565b6000610bc98383610b9f565b9150826002028217905092915050565b610be28261078c565b67ffffffffffffffff811115610bfb57610bfa610580565b5b610c0582546109fc565b610c10828285610b4c565b600060209050601f831160018114610c435760008415610c31578287015190505b610c3b8582610bbd565b865550610ca3565b601f198416610c5186610a2d565b60005b82811015610c7957848901518255600182019150602085019450602081019050610c54565b86831015610c965784890151610c92601f891682610b9f565b8355505b6001600288020188555050505b505050505050565b6000610cb68261080b565b9050919050565b610cc681610cab565b82525050565b6000608082019050610ce1600083018761077d565b8181036020830152610cf381866107d2565b9050610d02604083018561077d565b610d0f6060830184610cbd565b95945050505050565b7f496e76616c69642043726f702049440000000000000000000000000000000000600082015250565b6000610d4e600f83610797565b9150610d5982610d18565b602082019050919050565b60006020820190508181036000830152610d7d81610d41565b9050919050565b7f4e6f7420656e6f7567682066756e647300000000000000000000000000000000600082015250565b6000610dba601083610797565b9150610dc582610d84565b602082019050919050565b60006020820190508181036000830152610de981610dad565b9050919050565b7f43726f7020616c726561647920736f6c64000000000000000000000000000000600082015250565b6000610e26601183610797565b9150610e3182610df0565b602082019050919050565b60006020820190508181036000830152610e5581610e19565b9050919050565b6000606082019050610e71600083018661077d565b610e7e6020830185610cbd565b610e8b604083018461077d565b94935050505056fea26469706673582212207098cff3bfa00d230c53f7129a54035fe0d84319352cc4b7eaa4c3126336807864736f6c63430008140033",
  "linkReferences": {},
  "deployedLinkReferences": {}
}